:020000041004E6
:1000000000600020B93A041057340410C1200410D5
:10001000AA5555AA45554C420000000000000000BA
:1000200000000000000000000000000091420410E9
:100030000000000000000000B30104106946041035
:100040001B190410D134041000000000000000004F
:10005000314B04108F420410950E0410614E0410B1
:100060000000000000000000000000000000000090
:1000700000000000D3030410C7200410C5200410A2
:10008000000000008B3104108D3104108F310410FA
:1000900091310410DD3A04100F350410890F04105B
:1000A0000000000000000000000000000000000050
:1000B0000000000000000000000000000000000040
:1000C000EFF31482EFF309811D4880F31488BFF326
:1000D0006F8F91B0F0B543464C4655465E46674635
:1000E000F8B4184CEFF30883236006B4164C20686C
:1000F000164C2060164C2068164C2060164C206868
:10010000164C2060164C276800202060BFF34F8FEC
:1001100030BF27600B4C246884F3088882B003BC8E
:10012000F8BC9846A146AA46B346BC46F0BC04BCFF
:1001300011B080F3098881F31488BFF36F8F1047E3
:10014000000000000800002004ED00E0CC020020C8
:1001500024ED00E0D002002000E200E0D402002004
:10016000080020400448854600F0F6F800480047A3
:1001700049940410C046C04600600020084B19682E
:100180000868203080F30988022080F31488BFF3C8
:100190006F8F3FBCAE4608BC04BC62B61847000077
:1001A00000030020EFF3108072B6704780F31088D0
:1001B0007047EFF309800E4B1A6820381060F0C0CA
:1001C00044464D4656465F46F0C008B572B60BF041
:1001D0006DF962B60CBC116808681030F0C8A04612
:1001E000A946B246BB4680F309882038F0C81847B4
:1001F0000003002030B50B460146002020220124D8
:1002000009E00D46D5409D4205D31D469540491B4A
:100210002546954040191546521E002DF1DC30BD93
:1002200010B5441A0346944209D28318891803E092
:10023000491E0C785B1E1C70521EF9D210BD0C4674
:100240000443A40703D009E010C9121F10C3042AF5
:10025000FAD203E00C781C70491C5B1C521EF9D2C8
:1002600010BDD2B201E00270401C491EFBD27047A3
:100270000022F6E710B513460A4604461946FFF772
:10028000F0FF204610BD30B504460020034600E0D4
:100290005B1C934203D2E05CCD5C401BF8D030BDC8
:1002A0000321001D401E037812021A43491EF9D58E
:1002B00010467047F0B51FB40646002082B00546D0
:1002C0004024019100901BE0019922460F463046E0
:1002D00000F030F8049A059B801A994110D310461B
:1002E0001946224600F016F8361A8F410197224629
:1002F00001200021009F00F00DF838184D410090BA
:100300002046641E0028DFDC019B00982946324607
:1003100007B0F0BD10B5202A04DB0146203A914019
:10032000002010BD914020239C1A0346E34019434E
:10033000904010BD10B5202A04DB0846203AD0407A
:10034000002110BD0B46D340D0402024A21A91407A
:100350000843194610BD0000064C0125064E05E075
:10036000E36807CC2B430C3C98471034B442F7D3D6
:10037000FFF7FCFEB8C5041058C6041070B58C1801
:100380000578401C6B075B0F01D10378401C2A11D4
:1003900006D10278401C03E006780E70401C491C10
:1003A0005B1EF9D12B0705D40023521E0DD40B7010
:1003B000491CFAE70378401CCB1A921C03E01D7815
:1003C0000D70491C5B1C521EF9D5A142D8D30020E8
:1003D00070BD70477FB505469868012202739A6820
:1003E0001C4651739868022202A90E3003F07BF874
:1003F000A16805200D74E0807FBD00000648002143
:1004000002684B2040011018017041700321817077
:10041000C170002070470000C803002070B50D4D6A
:10042000044601232868D902401890261A46C06C59
:10043000314605F079F9010003D030464C6005F0F3
:100440005FF94B202968400109180878401C0870A2
:1004500070BD0000C803002010B5044600202082B3
:10046000A074A168A16161612060204602F050FC87
:10047000452801D0412010BDA088032107F022F8B3
:10048000044607F079FC002813D072B60A4801220E
:100490000168492040010918487EA240104348766F
:1004A00062B600200AF04EF9002802D0002005F0C4
:1004B000E7FD002010BD0000C803002070B5C17C1E
:1004C0000E4D4906490EC174044601232868D9021D
:1004D000401890260022C06C314605F025F9010035
:1004E00003D030464C6005F00BF94B2029684001E1
:1004F00009184878401C487070BD0000C8030020EF
:100500000146032070477EB504460D4616466846F0
:1005100001F0DAFC68460078207068464078287060
:100520006846807830707EBD10B50146002004E03A
:10053000114A125C521C1218D0B20F4A125C002AE7
:10054000F6D1C21C202A0CDA02220B4B1A54352396
:10055000094C421CA3542346821C99540023C21CFC
:10056000A3540222054B1A7035225A701A46917014
:100570000022DA7010BD0000D00300201C00002013
:10058000F3B5B1B005462AA801F09EFCFE48007AFA
:100590002990FE4880880290FD4800682890002439
:1005A0000AE0FB48032109024018A1004058A100BD
:1005B00020AA5050601CC4B2082CF2DBF548006A37
:1005C0001F90F548006A1E900120800700681D906A
:1005D0000120800740681C900120800780681B90E4
:1005E00001208007C0681A900120800700691990D7
:1005F00001208007406918900120800780691790CA
:1006000001208007C769C06A169001208007006B2F
:100610001590E24840681490E148C0681390E048A3
:10062000007F1290DE48203080881190DC48203016
:10063000007A1090DA482030007B0F90D848006B89
:100640000E90D7482030007D0D90D5482030008B8B
:100650000C90D3484030007A0B90D1484030007C59
:100660000A90CF484030007D0990CD484030007E50
:100670000890CB484030007F0790C9486030007830
:1006800006900B20000700680590C648006904909A
:10069000C448406903900320800780680190032DBF
:1006A00007D10920C0064068290708430921C90667
:1006B00048600024BC480068BC49086008460068DF
:1006C0006438086000BFB94800680068A100B84AF3
:1006D0005050601CC4B2B5480068001DB3490860A2
:1006E000192CF0DBA84800792D90A74800782E90AF
:1006F000012080070068410A2E9841402D988843C8
:100700002F902F98002801D033B0F0BD28A9487A47
:100710000001897A0843122804DB0020A5490860FB
:1007200003F094FA0920C0064068A349086001203C
:1007300004F008F8FFF7C4FC002004F003F89F4819
:10074000007800286CD19E480068402108400028AD
:100750004ED19B4800689B490968484030908D48BD
:10076000406A99490968884227D1954800689549A7
:100770000968884205D086480068309908400028FA
:100780001BD1924800680121090708408149496846
:1007900001221207114088420FD18C480068911045
:1007A00008407C49496892101140884220D07D4819
:1007B00000690221084000281AD00920C0060069FB
:1007C0000609F01C8249884208D800BF0920C006EB
:1007D00000690109F01C8142F8D309E000BF09203B
:1007E000C00600690109F01C794A801A8142F6D1DD
:1007F00028A9487A0001897A0843122805DB0120DC
:1008000003F024FA73486B490860032D07D10920CF
:10081000C0064068290788430921C90648601BE1D2
:1008200001206D49088300208881086100245E480A
:1008300000685E490860084600686438086000BFC8
:10084000A0005B490858594909680860601CC4B297
:1008500056480068001D55490860192CF0DB4B49CB
:10086000029888804A492898086000240AE0A0007D
:1008700020A908584649032212028918A20088506C
:10088000601CC4B2082CF2DB42491F98086242493E
:100890001E98086289021D9808601C9848601B9881
:1008A00088601A98C86017988861189848611998E4
:1008B000086108468762C7611698C8621598086380
:1008C00036491498486036491398C86012980877DA
:1008D0003349203111988880109808720F98087356
:1008E0002F490E9808632E4920310D9808750C98F1
:1008F00008832B4940310B9808720A9808740998AC
:100900000875089808760798087725496031069891
:1009100008700B210907059808602249039848616F
:1009200000208861049808614904019888601A4889
:10093000007A002871D1329800286ED026480089AC
:1009400009210840092806D18007C0690121490210
:10095000084000285ED12048008911210840112854
:1009600006D18007C069012189020840002851D1C1
:100970001948008921210840212831D18007C06908
:100980000121C902084029E0000020400000104079
:1009900000E100E000ED00E0000090404000004079
:1009A0000000304000E000E000000410FC020020E5
:1009B000F003002014000020180000200C0000208C
:1009C00000E200E0D4020020D0020020CC0200208F
:1009D000FFFF0F00CCBCECFC00001048002819D130
:1009E0001E48008941210840412806D18007C0697E
:1009F00001210903084000280CD1184800898121F1
:100A00000840812809D18007C069012149030840B5
:100A1000002802D0012012490860032D07D10920C7
:100A2000C0064068290788430921C90648600D4966
:100A300029980872032D04D10121002000F0AEFA9C
:100A400003E00021084600F0A9FA2998C007C00F6A
:100A5000002801D006F0D0FC00BF55E60000104889
:100A600000E200E000002040F7B584B006460F46E3
:100A700000BFEFF31080044672B600202F490870C3
:100A800000F0A0F90290304601F076FA019030466D
:100A9000FFF736FD03900398B04201DA012000E031
:100AA0000020002801D0039800E030460546019858
:100AB000A84201DA012000E00020002801D00198BE
:100AC00000E0284605460298A84201DA012000E02D
:100AD0000020002801D0029800E028460546A80022
:100AE00017490858401CA900154A5050002D06D13E
:100AF00000BF84F3108800BF002007B0F0BD012DB7
:100B00000DD11048017A00200E4A107230BF1046F5
:100B1000017200BF84F3108800BF0020EDE70A498E
:100B2000069808700846077139462846FFF728FDE1
:100B300000BF84F3108800BF0020DEE70C00002017
:100B400054040020000070400000204010B5837F56
:100B50000122002492024168082B03D942249142C9
:100B600002D310E0914201D242240CE0014634222B
:100B7000064802F0B8FC00F083F8002801DA4824A7
:100B800001E004F059FA204610BD000028170020AB
:100B90003EB5174D15482968827F0846A0310A7373
:100BA00000246030047644768476E122C276802286
:100BB000027702224277302008704C7002AA01A905
:100BC0006846FFF7A0FC68460078A222010168464B
:100BD000007A891C00020143684600790003014342
:100BE00028681152A03004713EBD00002817002073
:100BF000C803002070B503F00DFE01F0ADFF02F058
:100C00002FFDFFF7FBFB01F025FB1A4C1A4920686A
:100C10001A4D4018811013202A68C0011018C162B3
:100C2000616889080163A1688908416303F068F875
:100C300029681F208001228B08188280628B0F2375
:100C4000C280DB01A28BCB18DA87628C028022463D
:100C50002032127882703D225201002089180873D8
:100C600000F0A2FC01F0D0F905F04AFD00F094FB81
:100C700070BD0000281700200000FCEFC803002012
:100C800070B50025ED4306F017FB01282ED0002398
:100C900018490322888BFF24401E10438A7F593451
:100CA00062438218088B282460431218488B302432
:100CB000604312180846203040782C2460431018F6
:100CC0000D4A181884184869A0420DD10B48844277
:100CD0000AD90D6906F0F0FAC1B2284600F018FAF8
:100CE00000F052FB401B251A284670BDFF23B53388
:100CF000CEE700002817002089190000B80900007D
:100D0000F8B52C4F3C68206E5C34401C002814D091
:100D1000002529480023C07B00283ED00926F6067E
:100D20002648002D1CD000210A460B464169521C62
:100D3000994204D1002902D004E00125E9E7204BC3
:100D40009A42F2D32160006960603069A1680002B4
:100D5000090E000A09060143A16000F08DF81DE0AC
:100D60003169A2680902090A150E08D0018BC9076A
:100D700012D04169216000696060E37210E0881A56
:100D800000027D2300121B03984205DD100E0006B1
:100D90000843A06000F070F8F8BD6360002DFBD040
:100DA00003CC09F075FCFA2008F03EFB3968886234
:100DB000F8BD0000C80300204817002000001048BC
:100DC00088130000F8B5294D002029680A464032F2
:100DD0001378D279934348D14A6E120E45D13E2200
:100DE000525C002A41D1431E21488D6A467A1A4638
:100DF0000024F600AD190926F606376900887D192A
:100E000007070120002F07DA1123DB01CB189C6AAA
:100E1000631B1B021B1228D407273F02C919C96D87
:100E2000CF0103D54A1B120212121ED401252D0731
:100E3000002B06DA002A0ADA75600E488560032066
:100E40000AE01120000604437460002A03DB2943F2
:100E5000084603F0FDFA02200449096840314A7847
:100E6000002A02D0002048700320F8BDC8030020EB
:100E7000C0000020400000480449002008610448E8
:100E8000012100686030C171704700000000104807
:100E9000C803002008B502F001FD69460548006856
:100EA0000AF04FFD0098002803D0012000070249F6
:100EB000486008BD7403002000ED00E070B5274ACB
:100EC00000211068034640304176017649204001F8
:100ED0001818417681760F20203398751323084621
:100EE000DB0114680546E418646830352154146841
:100EF000E4186468615514683035E4186468615515
:100F00001468E418656804469034401CC0B2295542
:100F10002D28E6D31068C3185C6809231B02C31888
:100F2000DC65254630359D6590345C65FF2348308F
:100F3000037043708370C3701F23037112684D20C8
:100F40008154074801800921417105238371C171D2
:100F50000372428100F006F870BD0000C803002053
:100F6000C000002010B5064801680648406A002805
:100F700003D0202206F037F910BD0020087010BD04
:100F8000C803002028170020704700207047002168
:100F900001E000BF491C8142FBD37047F0B58BB024
:100FA00005460E461C224EA16846FFF739F907A8F0
:100FB00000F08AFF002D73D04021684681734C21D8
:100FC000C17220210172B22141745B2101754B482D
:100FD000846A200C4A4988420BD16846C17D702042
:100FE00081436846C175C07D6107490E0843694663
:100FF000C8754248446A200C414988420BD1684672
:10100000417930208143684641714079A107890EBA
:1010100008436946487139484038046B200C384908
:1010200088420BD16846C07D810889006846C17539
:10103000C07DA107890F08436946C8756846C17A13
:10104000042081436846C172407F00016946897F60
:10105000084312280ADB6846C17D04200143684624
:10106000C175C07D0A900A98FFF75EFA684680B2A3
:101070000121090408430921C906C86000BF0920ED
:10108000C006C0680121090408400028F7D169465C
:10109000487F0001897F0843122801DB03F000FA32
:1010A00000BF1848008B0028FBD001201549088399
:1010B0001720888100200861002E0BD00920C0066F
:1010C000076900BF0920C0060069102108403940A7
:1010D0008842F7D00C480D4908600BB0F0BD000005
:1010E000023F00023E30023C20023B4C023A4002EA
:1010F00039B202345B02350B00000000C00700105B
:1011000055AA000000001048CCBCECFC14000020E4
:10111000F3B581B0984A012101A802F091F9974CEA
:1011200004222060432101A802F08AF901272168E6
:10113000FF02C91908640422432101A802F080F9C2
:1011400021680422C9194864FF21843101A802F0F2
:1011500077F921688A4DC9198864A97F0C2201A8F2
:101160000B3102F06DF913212268C9015118C860D2
:10117000A97F202201A802F063F90926216836021E
:101180008919C867A97F102201A802F059F9132113
:101190002268C901511808602822052101A802F01F
:1011A0004FF913212268C9015118886030220521A6
:1011B00001A802F045F913212268C90151184860BD
:1011C000FA10012101A802F03BF913212268C9019C
:1011D00051184861A97F602201A802F031F9216805
:1011E000202289198866A97F01A802F029F92168BF
:1011F0008919C866AA8B012101A802F021F90F21E3
:101200002268C90151188863298B282201A802F09D
:1012100017F90F212268C90151180863698B302220
:1012200001A802F00DF90F212268C9015118486385
:101230000C22012101A802F003F921680C2289196E
:101240004866012101A802F0FBF8216828228919CB
:10125000496E8860284620300090417801A802F04D
:10126000EFF8216804228919496E8968886000981E
:10127000417801A8491C02F0E3F82168102289197D
:10128000496E89684860A97F01A802F0D9F82168F1
:101290000222C9194863A97F01A802F0D1F8216888
:1012A0000222C919C860A97F01A802F0C9F8216803
:1012B0000222C9190861A97F01A802F0C1F82168BA
:1012C0000222C9194861A97F01A802F0B9F8216872
:1012D0000122C9198861A97F01A8491C02F0B0F850
:1012E00021681022C91908630B2101A802F0A8F88F
:1012F000072221681202891808650422802101A8AA
:1013000002F09EF8216889190867029ADC2042439E
:10131000012101A8443202F093F821688919486735
:10132000029AD8204243012101A82C3202F088F809
:101330002168F02289198867012101A802F080F84C
:10134000104C7C222060A97F01A802F079F8216866
:101350000822C867032101A802F072F82168282238
:1013600080310860012101A802F06AF8216880310B
:1013700048600198FEBD0000B8090000C8030020C5
:1013800028170020CC030020704710B5C001000CC6
:1013900000F02CF8002010BD70B506F087FA114D52
:1013A00001242868E4020019006C402106F016F8B8
:1013B00029680919C864486C402106F00FF82968AB
:1013C00009190865886CFF21813106F007F82B6840
:1013D00008221919486504480021181802F08DF8F0
:1013E00070BD0000C80300203808000070B5044636
:1013F000502C00DA03E059210A4805F07FF90A4829
:1014000000680A49884200D070BD6006050C3F2084
:1014100007490881084685611120088000F038F8E6
:1014200000BFF1E740C4041014000020CCBCECFC69
:101430000000104070B504460D460F48844203D3A7
:101440000E48844200D803E0A6210D4805F056F965
:101450000C4800680C49884200D070BD3F200B4901
:101460000881A00888610948403005603320088061
:1014700000F00EF800BFF0E700000410FF7F061038
:1014800040C4041014000020CCBCECFC0000104050
:1014900000BF0348008AC007C00F0028F9D070477A
:1014A0000000104010B50D4900050B680921090224
:1014B0005918CA6E0021000DA0331B7B0AE04C01B5
:1014C000145B2405240D844202D14801801810BD0C
:1014D000491CC9B28B42F2D8002010BDC8030020BD
:1014E000064909220968120289188008C96E40015C
:1014F00008180188002900D100207047C803002087
:1015000070B50C460B4E81000B4832680D18012354
:101510002032D37721462846FFF78CFF2868002128
:10152000844201D1084600E0FB2032682032D177A6
:1015300070BD0000C80300200000041038B5184A30
:1015400014682246BA32AE34A378DD0701D00129EF
:101550000AD05B070CD501290AD0217949070BD5A0
:10156000E17A002905D007E0E07880210843E070A7
:1015700038BD0121E172508020794106090FF7D072
:101580007821084069460870002048706A460221A8
:10159000422004F0B1F9207987210840207138BD3C
:1015A000C803002070470000034800210068AE30E7
:1015B000C170817070470000C803002038B5024632
:1015C000174801240068AE30022A1FD0052A03D034
:1015D000072A07D00B2A20D1084609794088FFF74F
:1015E000ADFF1AE000790024020600D5012482072D
:1015F00003D1C20601D480060FD5084600216A46F1
:101600001170694603F08CFD044606E081784907B5
:1016100003D50179FB2211400171204638BD00003D
:10162000C803002010B509480468AE34E07880078C
:101630000BD5002001F0D6F8022004F003F9E07881
:1016400001210843FD210840E07010BDC8030020BF
:10165000FFB5074673480D4604688FB0AE34A178D5
:101660001E46C80602D5E078C0067DD4880607D598
:10167000E0788006800F03D0022F01D0002E73D0B7
:101680008806800F06D0022F08D0032F06D0002E28
:101690006AD003E0012F01D0002FF8D1880603D4CF
:1016A000002D01D0012D5FD1002E06D13020014048
:1016B000384601F073F8002856D1119900200870BF
:1016C000A17889068A0F7DD00CA908A801F004FA38
:1016D00007900DA90AA801F01FFA069007980028A4
:1016E00002D00698002801D1012E58D1022F04A85B
:1016F00007D000F065FB002E3CD00798002803D0EF
:1017000012E002F09DFDF6E7464F47483B6806228F
:1017100008A9181801F0DDFE0028386808D040300C
:10172000417E4908490041760698002805D014E01A
:101730004030417E01221143F5E73A4F3A483B6879
:1017400006220AA9181801F0C4FE002838680CD037
:101750004030417EFD22114041760798002809D093
:101760000698002806D01AE043E04030417E02226D
:101770001143F1E72B48062203682B4804A91818E7
:1017800001F0B1FE052069460873002E02D108461B
:1017900003F034F925480290684603F0E3F8A07896
:1017A000800611D51198032101702079C10603D557
:1017B000002D01D0022D1CD1800605D5012D03D0AE
:1017C000032D00E018E014D1A078C00627D51199A8
:1017D000012008702079C10601D5002D09D18106AC
:1017E00001D5012D05D1000619D5002D17D0012DE9
:1017F00015D0422013B0F0BD012F01D1002E03D02F
:10180000890F314309D00AE00648062203680648DA
:10181000611D181801F067FE012011990870002061
:10182000E8E70000C803002033070000A0BB0D005C
:101830003EB505F023FE044605F0ACFE082C01D1B0
:10184000082813D00A480B49006806224118684648
:1018500001F049FE68464079400601D5022000E0CB
:101860000320012302AA0021FFF7F2FE3EBD000083
:10187000C80300203307000010B50446022000F022
:1018800033F80D4800210268092000021018A03228
:10189000C36E107B05E04A019A5A002A04D0491C05
:1018A000C9B28842F7D810BD48011C52C01802695D
:1018B00004210A43026110BDC803002010B504468C
:1018C0000146042000F0FCFD002808D0044805492A
:1018D0000068401821463C3004F0E2F8432010BD77
:1018E000C80300206407000004490A683D2149013B
:1018F00051180A7B02430A7370470000C803002096
:1019000000B51138C0B2FFF7EBFD002804D001226A
:10191000016952051143016100BD704770B504466D
:101920000026206880018009002800D003E07A2189
:101930005D4804F0E3FE207900280BD020790628CA
:1019400008D02079012805D02079042802D02079F8
:10195000052800D103E07B21534804F0CFFEA07995
:10196000002802D0A079012800D103E07C214E4854
:1019700004F0C4FE6079002802D06079012800D10B
:1019800003E07D21484804F0B9FE012109032068E5
:101990000840884202D12079062800D003E0802147
:1019A000414804F0ABFE0121490320680840884209
:1019B00002D12079062800D003E081213A4804F0C2
:1019C0009DFE26792079002808D1012080074068F3
:1019D000216888430121890748600BE020790628A7
:1019E00008D10026012080074068216808430121B2
:1019F0008907486000202EE02168C140CD07ED0F27
:101A0000002D26D008280EDA01218907C96A830033
:101A10000F229A409143830032469A40114301229B
:101A20009207D16215E0072813DD102811DA012191
:101A30008907096B0246083A93000F229A409143A6
:101A40000246083A930032469A4011430122920717
:101A50001163411CC8B21A28CEDB6079012807D176
:101A60008007C0682168084301218907C86007E032
:101A700001208007C0682168884301218907C86068
:101A8000A079012807D180078068216808430121D7
:101A90008907886007E00120800780682168884303
:101AA00001218907886070BD8CC4041010B50446FC
:101AB000A0018009002800D004E0FF2185310548FD
:101AC00004F01CFE012080070068604001218907A6
:101AD000086010BD8CC4041070B505460C46A80102
:101AE0008009002800D004E0FF216F310A4804F08B
:101AF00005FE002C01D0012C00D104E0FF21703143
:101B0000054804F0FBFD012C02D1A007C56301E0EC
:101B10000248056070BD00008CC404104000004005
:101B2000024610B50B48120501680920000208188A
:101B3000C36E0020120DA031097B07E044011C5B3D
:101B40002405240D944203D0401CC0B28142F5D834
:101B500010BD0000C8030020F8B5044683480E46B7
:101B60000068834947184820C05DC0076FD0B0881F
:101B7000FFF798FC0546012C02D0002C68D0F3E05A
:101B8000002D04D02869410703D54520F8BD012167
:101B9000C7E0B268F188147B0029F0D062060AD54C
:101BA00068888842F3D3D22C01D0522CEFD138462A
:101BB0003146183048E0A106890E1E2949D81E2C4E
:101BC00020D101071ED508218843286129880120DA
:101BD00002F0A8FC0121304601F076FD63480123A4
:101BE0000068D9020830401842242D883922C06C80
:101BF000214603F099FD010003D08D80204603F0BB
:101C00007FFDB1E0E1070BD01D2C1AD01B2C18D0A2
:101C1000410533D4012189020843EE612861A3E024
:101C2000C00606D52B4602220321422003F0AEFE59
:101C3000ADE72988002002F063FC296910200143E8
:101C4000296138463146243003F02AFF8CE015E044
:101C500016E029882022002001F0E0FC05000DD0CC
:101C60000121304601F030FD2B460022214606209E
:101C7000FEF7B0FB2846FFF721FE75E04120F8BDD6
:101C8000B068047B1D2C3CD01B2C43D00021304677
:101C900001F01AFD002D67D0032C46D0052C44D04E
:101CA000072C42D0092C40D00B2C3ED00D2C3CD020
:101CB0000F2C3AD0112C38D0132C36D0172C34D00E
:101CC000192C32D0012C30D0022C35D0042C33D03A
:101CD000062C31D0082C2FD00A2C2DD00C2C2BD038
:101CE0000E2C29D0102C27D0122C25D0162C23D026
:101CF000182C21D0522C1FD0D22C1DD01E2C2FD00E
:101D000032E0002D03D02988012002F0F9FB314692
:101D1000022001E03146012002F074FB002823D0AC
:101D20000021304601F0D0FC1EE0296910208143DB
:101D300029612988002015E028694021884328610D
:101D4000010511D5FF2101310843286129880220AE
:101D500002F0D6FB01202969C0028143296103E01A
:101D60002988032002F0DEFB0020F8BDC803002014
:101D70006407000010B5104A104B1268D2184032A8
:101D8000127AD20706D002280AD0052804D00B28E0
:101D900010D101E0412010BD4888FFF76DFD09E03A
:101DA0004888FFF77FFB002804D0012201699205D3
:101DB00011430161002010BDC8030020640700002A
:101DC000F8B5204E04463568AE3500F053F9207062
:101DD000000A607000F04EF9A070000AE07000F098
:101DE00049F9C2B28004830E227100216371084652
:101DF000275C401C7918C0B289B20628F8D30029A4
:101E0000E3D02078FF280CD16078FF2809D1A07892
:101E1000FF2806D1E078FF2803D1FF2A01D1FF2B4C
:101E2000D3D00622691D204601F053FB0028CCD0F8
:101E3000316806222046783101F04BFB0028C4D0DF
:101E4000F8BD0000C803002070B50546002D04D081
:101E5000012D0AD0022D1AD110E002F069FA401EBD
:101E60000C2148430F490C5819E002F061FA401E5A
:101E70000C2148430B494018446810E002F058FA1E
:101E8000401E0C21484307494018846807E002F0CF
:101E90004FFA401E0C21484302490C5800BF00BFB6
:101EA000204670BD8CC20410F0B50E4607460024D3
:101EB00007E03D1900F0DEF82870000A6870A41CE5
:101EC000E4B2B442F5D3F0BD10B51549154A144B30
:101ED000283BDB691B061B0F4370114B283BDB695A
:101EE0001B071B0F83700B6843600F4C4368A342B2
:101EF00009D113680D4CA34202D10423037004E0FE
:101F00000223037001E0012303704378002B01D109
:101F100001234370064B9B8A5B1C9B00836010BDB2
:101F2000280090401C00001041A0000244A000F2D4
:101F30000000104010B5012818D8072916D80C4AFF
:101F4000126813462033187759778007C906000EA8
:101F5000090E01430020074BA03204E08401E4187D
:101F6000A172401CC0B2147B8442F7D8002010BD7F
:101F7000C803002000010020014603207047000034
:101F8000074A914202DC5242914200DA1146FF2296
:101F9000993251430A1251180A14511808187047FF
:101FA000FFFF4F00401AC010810040180012704718
:101FB00010B50920C00600690002000A02F04AFDBF
:101FC00010BD70B50D460446FFF7F2FF2946FFF736
:101FD000D7FF0146204600F001F870BD1FB56A46E4
:101FE0003A3010736846029102F0CEFC002800D00F
:101FF000012004B010BD70471FB569463A30087320
:10200000684602F0FBFC1FBD70B5184C0721206824
:102010000902411800260E77154B4E770622FF2144
:10202000C01801F06AFA392520686D01401906715F
:102030002021417105F040F9012814D01F202168AA
:102040000B4B491988712068093307220021C018F9
:1020500001F053FA064B206810330522FF21C01807
:1020600001F04BFA70BD5F20E9E70000C8030020D3
:102070001E07000000210B200007026852070DD543
:10208000026804239A430260026808231A4302602C
:1020900004E0491C052901DD0020704742689207D1
:1020A000F7D54168C907FCD0806880B2704710B589
:1020B000FFF7E0FF0446FFF7DDFF0004201810BD26
:1020C00000BFFEE770477047024600200146535CA0
:1020D000002B00D00120491CC9B20629F7D3704754
:1020E000024800682030C07F70470000C80300200D
:1020F00070B50E46054601462022002001F08EFAFA
:10210000040023D0284600F06BF8050027D028797A
:10211000B04224D1A87880071FD4A06801210173A0
:10212000A06800214673A06802268673A068C17368
:10213000A0680174A06841740620E0802146052053
:1021400000F0BEF9002803D0412509E064250BE02A
:10215000A8783043A870002506E0462500E0422517
:102160000021204601F0B0FA284670BD7CB5144627
:102170000D4600281ED1052D02D00B2D07D011E0F1
:10218000627921796088A31D01F0A2FF0AE021464F
:102190001231881F01910090627921796088A31D16
:1021A00001F0ADFF21462846FFF7E4FD2146284611
:1021B00000F0B4FA7CBD70B505460C46002000F076
:1021C0000FF800280BD02905090D0180002181702E
:1021D000002C01D10821817001210171C17070BDF5
:1021E00030B502460A4801230068DB020021C3180B
:1021F000A030047B07E0586B0D014019058895421B
:1022000004D0491CC9B28C42F5D8002030BD000072
:10221000C803002030B50A49012309680246DB02E1
:102220000020CB18A031097B07E05C6B0501641925
:102230002488944203D0401CC0B28142F5D830BDFE
:10224000C80300208068017A407A0002081880B232
:102250007047000070B50023134A1DE00125ED0210
:1022600040191901466B0024C81C345410684019E9
:10227000466B081D345410684019406B4452106876
:102280004019466B08460830345210680C3140192A
:10229000406B5B1C4450DBB21068AC21095C994276
:1022A000DCD8002070BD0000C803002010B5024635
:1022B00088680C46817AC07A0002081881B2E088EA
:1022C000001FE080042909D005290CD006290FD071
:1022D0000121204601F0F8F9002010BD21461046EA
:1022E000FFF73AFC08E02146104600F03FF903E012
:1022F0002146104601F048FD0028EED0E188091D76
:10230000E18010BDF3B581B00D4600268888FFF747
:1023100067FF070056D0287B3C460834009002280F
:10232000F86833D0002845D0E888002810D02188EC
:1023300040182080284601F065F9014660688068F1
:1023400000F027FF0120616801F01CF90020E880FF
:102350002088042828D36068FFF774FF001D2188B7
:1023600080B2814226D881421BD16168C8806168F1
:102370000198FFF79BFF0146002000290ED06168FD
:10238000A94201D16060208045261FE0002801D0CD
:102390004526DDE76560E8882080D9E76060208019
:1023A0000BE0452E06D008E0452E06D1384600F059
:1023B000C7F90BE0384600F0C3F9002E06D10098AB
:1023C000012803D10121284601F07EF93046FEBDE7
:1023D000024610B50020002A05D0012A02D110467D
:1023E000FFF790FF10BD1046FFF760FF10BD70B5FE
:1023F0000546801E0C46030002F0E5FE0A0C1D1D7A
:1024000006170B0B0B0B060B0A4620782946FFF725
:10241000ADFE70BD2846FFF7ADFC608801F0A0FD61
:102420002146284600F07AF970BD4A890888A11C27
:1024300001F08EFE70BD62880978284601F0B0FD7B
:1024400070BD0000F0B585B0FFF7E4FE1B4D0446FB
:102450002868A030007BA0422DD920463230694642
:102460000873684602F0CAFA01262868F602801945
:10247000426B002124011153286827468019426BC2
:10248000E01C115428680C378019426B201D115430
:1024900028688019406BC05900280CD0012101F038
:1024A00013F9296800208919496BC85129688919CD
:1024B000496B0834085305B0F0BD0000C803002084
:1024C00010B50C460146042805D0052903D006297D
:1024D00001D0502010BDA068A2790272E088020AE3
:1024E000A0684272A0688172A068090AC172E0887F
:1024F000001DE080022020732046FDF7ADFF00287C
:10250000E8D0E088001FE080412010BDF8B53238E7
:1025100001060220144E009001253068ED020C0DDA
:10252000421939214901526B4118C97B175B0123BC
:1025300049070CD5083040191E220221C06C03F057
:10254000F3F8010003D08F80009803F0D9F83168C8
:10255000002049194A6B211D505431684919496BB3
:10256000E41C0855F8BD0000C8030020F0B50D4676
:102570008DB000210A91A96800280F7B02D00128A4
:1025800022D0C3E0A888FFF745FE624E04463068BB
:10259000A030007BA04215D9122F08D15E480290CE
:1025A0002046323069460873684602F0DBF90120A4
:1025B0003168C0020818406B210140188178FD2263
:1025C0001140817000219EE0A888FFF723FE064697
:1025D0005048AC220168525CB24218D90120C002B6
:1025E0000818406B32018418A278100710D5122FFA
:1025F00010D1500710D4A9882A46422003F0F8F9D8
:10260000A07804210843A070A868407B207179E07D
:10261000132F0AD0012F41D0A868417BA888FFF76B
:1026200067FD0A9000286DD070E0A868E778437BCA
:10263000BB4267D1520765D5027C407C0123000272
:10264000101887B242200490A888069039204001D3
:102650000818C07B80070FD5D802083108181D2242
:10266000C06C049903F060F8010005D0069A8A80D6
:10267000CF80049803F044F8A078FB210840A070B4
:10268000E078401C0006000EE07001D10120E070EF
:1026900068463236067302F0B1F933E0100731D4E0
:1026A000A868E178407B88422CD150072AD5FB20CE
:1026B0000240A270E078401C0006000EE07001D1DC
:1026C0000120E07068463236067302F097F911482F
:1026D000202200689101083040184224AE8802236D
:1026E000C06C214603F020F801000BD0A868437BA2
:1026F000877BC07B8E80000238188B710881204652
:1027000002F0FEFF0121284600F0DEFF0A980DB01E
:10271000F0BD0000C80300203075000010B502288D
:1027200009D0052801D00B2808D10846097940882E
:10273000FFF741FD02E04888FFF784FE002010BD4E
:10274000F8B50546807810210843A8704220009013
:102750001148C901006801270830401802263B468D
:102760002122C06C009902F0DFFF04000AD027711B
:10277000667132462946A01D00F0B5FE214600983C
:1027800002F0BEFFE868002805D0012100F09CFFA0
:102790000020E8602881F8BDC8030020FEB50F4680
:1027A0000646002404F0F6FE054604F067FE082DF8
:1027B00001D3082811D202A9684600F075F9002F4C
:1027C000684606D04079400601D5022102E0032187
:1027D00000E0017AB14200D041242046FEBD002035
:1027E00070470000F0B5824D04468249286885B0E4
:1027F0004018019004F042FE002C7DD008280DD333
:102800004220074603907C480024029004F09EFE7C
:102810000090082004900098082802D30C2005B0EE
:10282000F0BD00F007FB00F09DFA009873498001AD
:10283000421813212868C901401881880198803006
:10284000036BC0315980016B09800021C9430182AB
:102850000021456ACB1DEF54856AEF54C56AEF54D9
:10286000056AEF54066B039DF554039B3F0A1B0A50
:102870000393466A029D0B1DF554866AF554C66A99
:10288000F554066AF554066BF554029B491C1B0A65
:10289000C9B202930329DCD3009911234907090E19
:1028A000456A0B43AB72856AAB72C56AAB72019B1A
:1028B0001D7E0223022D0BD1456AAE7A1E43AE72F5
:1028C000856AAE7A1E43AE72C56AAE7A1E43AE7298
:1028D000466A0127F772866AF772C66AF772194369
:1028E000036B9972036A9972036B0321D972016AAF
:1028F000CF7200210B4600E04EE0535455186B7127
:10290000491CC9B20529F6D3802595720199203159
:10291000CE7BD672868C1682068E5682384E966193
:10292000384ED6613E462027BE54D375019A127E9A
:10293000002A04D0012A04D0062A12D110E018245B
:102940000FE00322836828245202934209D1C3680E
:10295000934206D100220492FF225632028200E006
:102960001024497B002904D0012904D0022906D172
:1029700003E0C02102E02C4301E040210C43049914
:10298000C2680902806853184218E108C900491C4E
:10299000009807F08FFC42E772B608280CD2092194
:1029A0002A68090251188B6E60214143891C5C5CC6
:1029B0006407640F012C01D062B616E0F024A45C19
:1029C000002C04D01126FF24B60192199475002220
:1029D0005A543F212A68490151180B7F0122824035
:1029E00093430B7762B608F0CDFD002017E7000097
:1029F000C8030020580800008100B000CC0000206F
:102A0000D6BE898E55555500FFB50C4691B001468E
:102A1000102204A800F067FD1022214608A800F04B
:102A200062FD04A8009008A801900CA8029000265E
:102A30006846067318481949006809274518FF06B3
:102A40002C46803472B66846007B002808D062B6F7
:102A500010220CA9139800F046FD002015B0F0BD1F
:102A6000286D3969401A0E4900020988000A0907D1
:102A70000BD51499002908D10A49FF38884204D39C
:102A800068460673606430BF03E06846666404F01D
:102A900035FC62B6D6E70000C803002058080000E5
:102AA000C000002002FF7F0070B5044608480D46B4
:102AB0000068084946182046316805F069F87268D0
:102AC0002271100A6071100C2870002070BD000087
:102AD000C80300205808000070B50D46044604F0F5
:102AE000CDFC082801D31F2070BD094809490068A2
:102AF00040180022416B931CC95CA154521C062A49
:102B0000F8DB406B00784006C00F2870002070BDD5
:102B1000C803002058080000F8B50C46054604F02C
:102B200039FD082801D31F20F8BD0A4E132730684D
:102B3000FF01C019806806222946801C04F053FB5F
:102B40003068C019806800784006C00F20700020EF
:102B5000F8BD0000C8030020F8B55E4B5E481E6853
:102B60000022301801462031027613240D460A73E4
:102B7000E40131198E68FF27283686638968493752
:102B800050314163083181620721A973416B524E74
:102B90000A70456B062169701B68FB2519198C6842
:102BA0007834C46389680824A03101640146C031C7
:102BB0004A720A72CC738C731B240C824F828D82F2
:102BC000103ECE820D834E838C83CF8343495A655A
:102BD000196513233F4C0146DB012668B518F6182A
:102BE000B768603516462D7E2A36BD552668F6181C
:102BF000B76816465236BD552668F618B7681646A9
:102C00007A36BD552668F618B7681646A236BD5501
:102C10000D70521CD2B2491C062ADED300230B7061
:102C2000826B06215170426B5170024680325361B3
:102C3000194693611BE009252D025B1960254D4360
:102C40009F6E2B46264E0A33FE52092327681B022D
:102C5000FB189F6E2B4600262033FE500923276861
:102C60001B02FB1824359B6E491C5E51C9B22368B8
:102C7000AC25ED5C8D42DED8002501219583C9028B
:102C8000018455640920216800020918896F936B3B
:102C9000891C598021680818806F516B801C4880FE
:102CA0001048818D206840300186FEF707F93F21EA
:102CB00020684901411841220D77520108218018EE
:102CC000817000F011F806F0D5FC20682030C57442
:102CD000F8BD0000C803002058080000862E000040
:102CE000FFFF00002817002010B5084C2F23206894
:102CF0005B01F822FF21C01800F0FFFB17222168BA
:102D0000002092018918087710BD0000C803002038
:102D100010B504468088032104F0D4FB022172B66A
:102D2000082815D20D4A1368092212029A18602346
:102D3000926E5843831CD35C002B09D000211018DD
:102D40002160016A002906D0416A0C604521446275
:102D500062B6084610BD0462F8E70000C803002010
:102D60001F20704730B53148314900684018416B29
:102D7000037E0A781B07920992011B0F1A430A70FF
:102D8000C16B037E0A781B07920992011B0F1A433D
:102D90000A70816B0A7892099201121D0A70016C07
:102DA0000A7892099201121D0A700021024620320F
:102DB0000BE0836A456B5C5C0B460833EC54846A19
:102DC000C56B645C491CEC5489B2137B8B4201D9FE
:102DD0001F29EED3017E012907D0D9B2426B891D8C
:102DE0005170416B0831816230BD0346C26B1033B4
:102DF000083281688262446B0C22627000221546A0
:102E0000446B083561551970090A5B1C032A00D10F
:102E1000C168521CD2B2062AF1D3406B0278520626
:102E2000520EC9010A43027030BD0000C8030020E1
:102E300058080000FEB51F481F490068471869463A
:102E400001A8FFF731FEBE6B7D6BFC6B3B6C72B66D
:102E5000002001AA811C175C6F54175C7754175C23
:102E60006754175C401C5F540628F3DB69460978F9
:102E70002A78BF20C9070240490E0A432A706946D2
:102E800009783278C9070240490E0A433270694610
:102E900009782278C9070240490E0A4322701A783D
:102EA000694602400878C007400E02431A7062B6B5
:102EB0000020FEBDC80300205808000030B41348AD
:102EC000092203681120C0011818D206806A11690E
:102ED0000F4C411A09022588090A2D0702D430BC7B
:102EE00001207047647A9B6AE400E3188B4209D2A0
:102EF0000123DB05994205D259000843506030BCDC
:102F00000120704730BC002070470000C80300203B
:102F1000C0000020FEB5114811490068062246187D
:102F200010494118684600F0DEFA01226946304631
:102F300002F02DFFB56BF46B736B366C00206A46A4
:102F4000811C175C5F54175C6F54175C6754175CE7
:102F5000401C77540628F3DB0020FEBDC803002088
:102F600058080000330700007CB50E4C0E4920685D
:102F7000062245180D494118684600F0B4FA296A3E
:102F800006226846891C04F02EF913212068C90125
:102F90004018816806226846891C04F024F9002044
:102FA0007CBD0000C80300203C090000330700007E
:102FB000012070477047000010B50E4900220B68D1
:102FC000FD21C90059182031897E08290FD2092412
:102FD00024021B199B6E60246143591803688C6B93
:102FE000A34204D14068C96B884200D10122104637
:102FF00010BD0000C8030020F8B51D461446064663
:10300000002704F059F901280CD01F2071780840DE
:10301000060036D00020E86104F0C8FE002803D086
:10302000E86907E0FF20F1E769893246012000F0F6
:10303000F5FAE861002801D0102722E0E07D802128
:103040004840E0751049286908421AD06079401E4E
:1030500060716079FF2814D1A079401EA071A07919
:10306000FF280ED1E079401EE071E079FF2808D1F9
:10307000207A401E2072207AFF2802D1607A401EFA
:1030800060723846F8BD000020280000FFB582B00D
:1030900000230193059B012B30D04B8C224D1C014A
:1030A0000B8C9C46CB7E6B438D8BAE46CD8B1646F0
:1030B000403697690096A74206D19689664503D1A6
:1030C000009E3688AE4201D04026019696790427AC
:1030D000760876003E43967194615461644694810B
:1030E000009A1580059A012A17D00B6170464A682C
:1030F000400010184860019806B0F0BD0346403308
:103100001D461B8E084E1C01AB8D9C4660231B5C2C
:103110007343AE8C2D8DB646C9E783657146C26C8C
:1031200049005118C164E6E7E20400000860426803
:103130004A604268116041607047026804E08A4258
:1031400001D10120704712688242F8D100207047F7
:1031500002680A60126802600A68126850600A68B1
:103160000020106009684860704700B50B46FFF703
:10317000E4FF002808D003CB083B086003CB416084
:103180000020083B1860586000BD704770477047CA
:1031900070470268002A03D010461268002AFBD14B
:1031A0000160704770B50C461F21521E0A43054648
:1031B000521C002011044E0D17D0214608316A1A06
:1031C0002846002A01DD082A03DB2022FDF728F823
:1031D00004E0082208C9521E08C0FBD12035204651
:1031E000761E24683604360CE7D170BDF8B5044667
:1031F0000D46501E1F210843401C00041646470D73
:103200001ED0204608302946421A002A01DD082A2D
:1032100003DB2022FDF704F804E0082208C9521E4F
:1032200008C0FBD12035202E01D2304600E02020FE
:10323000A080301A7F1E24683F0486B23F0CE0D184
:10324000F8BD002959D0F3B58FB00C46A0882028CE
:1032500013D0002C14D00294029800680290002829
:103260002ED0868801463246083106A800F03BF988
:103270000027A088202805D007E02468002CE5D18D
:1032800011B0F0BD24680020A080002EE4D080B2F0
:103290002021091A8DB2AE4200D2354622460832AC
:1032A00006A98018C9192A4600F01DF9701B86B2BC
:1032B000781987B2A0884019A080002ED9D1CBE719
:1032C00020680028DCD0002121600F9972B60A78AE
:1032D000002A03D04B6892009A5810600023838024
:1032E0000A78521CD2B20A704C689200A050006852
:1032F0000028F4D162B611B0F0BD7047491EC90470
:10330000090E72B602788A420CD9511AC9B24A1E05
:10331000D3B20370426888001058990052580021B7
:10332000116000E0002062B670470021002804D040
:10333000491C0068C9B20028FAD10846704770B429
:10334000417800292DD08668002E2AD000250570EE
:1033500041682A460D60417800291FD92821514330
:10336000891900230B60002913D072B60378002B53
:1033700003D044689B00E35819608D8003785B1C80
:10338000DBB2037044689B00E15009680029F4D166
:1033900062B6521C4178D2B29142DFD870BC002094
:1033A000704770BC47207047F8B51D460E466B4607
:1033B000002A09D0002824D08488944204D8121B03
:1033C00012040068120CF5D11A80040019D014E020
:1033D0006846A1880088091A8FB2AF4200D32F46F1
:1033E00021183A463046083100F07DF8F619E81BFE
:1033F00085B22468002069460880002D03D0002C87
:10340000E6D14120F8BD0020F8BD002917D072B6E2
:103410000278002A03D0436892009A58116010B4D1
:1034200000238B800278521CD2B202704468920052
:10343000A15009680029F4D162B610BC70477047EA
:1034400010B5034600680324401E20435143401C2E
:103450004118196010BD704710B5002819DA1A4AD2
:1034600003071B0F083B9B089B00D2588307DC0E09
:10347000FF23A3409A438B071B0E8407E40EA3404F
:103480001A43114B0407240F083CA408A4001A5146
:1034900018E00E4A03231B02D21883089B00D2585F
:1034A0008307DC0EFF23A3409A438B071B0E840780
:1034B000E40EA3401A43054B032424021B1984087D
:1034C000A4001A5110BD00001CED00E000E100E076
:1034D000704770B504460D461646324629462046CA
:1034E000FCF7D1FE70BD70B504460D461646324657
:1034F00029462046FCF794FE70BD70B504460D4683
:103500001646324629462046FCF7B4FE70BD704789
:1035100003208007006880218843803003218907C9
:1035200008600846006880218843032189070860F5
:103530007047000070B5124A092312681B02D218A6
:103540000123526E83435B00491E41249B184909A5
:10355000491CC9B272B615798D420ED31E785B78BC
:10356000AD19EDB25B18AB4207D84000135C0024E4
:103570005B1813541079401A107162B6204670BD62
:10358000C8030020F3B50F4612480921006809025C
:103590004018BE68446E81B03046FFF7C6FE05464F
:1035A000F888401E4009401CC0B2A84211D23146E2
:1035B000A068FFF746FE3046FFF7B7FE281A72B63E
:1035C00001994900625C121A62542179081820712D
:1035D00062B6FEBDC803002010B51C4613460A465D
:1035E00080682146FFF7E0FE10BD0000044A092371
:1035F00012681B02D218526E40008018417070474A
:10360000C80300200022816808380260084670471D
:1036100010B58068FFF789FE10BD0000F8B50D46B3
:103620000E49092309681B02C9184E6E1F21521E3C
:103630000A431D3297B200243946FFF77BFF00286A
:103640000AD13946B068FFF759FE044608340068CD
:10365000A0600020E074A5802046F8BDC8030020CB
:1036600070B517480921006809024018446E042209
:1036700000212046FFF741FF124D688C233040099E
:10368000401CC1B20020FFF7B1FF688CA97F233036
:103690004009801C4843401CC1B20120FFF7A6FF2F
:1036A00028462030A16840784870A068FFF747FEA0
:1036B000A06872B6007862B62071002070BD00006C
:1036C000C803002028170020F8B50E460C4909222F
:1036D000096812028918083807464C6EFFF725FE64
:1036E00005463946A068FFF790FE72B67100605C2F
:1036F000401B605420794019207162B6F8BD00006B
:10370000C803002070B5304D2E4A28680021FF30D4
:103710001B30FFF7F2FE2868FF21F222115411221C
:1037200092018218117651769176284AF4210A5036
:103730002F235B01F822FF21C018FFF7DEFE244B88
:1037400028687822FF21C018FFF7D7FE204B286891
:10375000F8337822FF21C018FFF7CFFE9D23286899
:10376000DB007822FF21C018FFF7C7FE194B28683D
:103770004022FF21C018FFF7C0FE232628687601EB
:10378000002481190C722721490141180C712B2149
:10379000490141180C701721890141180C771B2130
:1037A000890140180476FEF703FC29680B46803334
:1037B000986788190A4601210471E0325174DC6768
:1037C000847170BD39030000C8030020905F0100C0
:1037D0006C040000DC060000F0B4234B00281B68DA
:1037E00008D001280BD002280CD0042833D02F2475
:1037F000640108E01D481B189C4604230CE09D242E
:10380000E40000E01A4C1B199C46032825D004282C
:1038100026D00423042825D00F2701209840C3B2C6
:1038200000205B08C418E4B2BC420FD2E500654436
:103830002E686D682D02AA4203D8AA4206D1B14271
:1038400004D32046B14201D1AA4202D0002BE8D1D4
:10385000FF20F0BC7047074CD5E705231F27DCE7A6
:103860000323D7E70827D8E7C80300206C0400002B
:1038700064050000DC0600000A4610B5014603207E
:10388000FFF7AAFFFF2801D0012010BD002010BDC6
:10389000002070471F20704770470000F8B50926C8
:1038A000F60631687A487B4A816013687A4A9D1827
:1038B0000022027042708261C261027142718271A3
:1038C000764A1288F4145207520F82701C1960272E
:1038D000A46E5743E719724C92011219C760026136
:1038E000BA78C27057077F0F8803800F7ED16B4A6A
:1038F000188E50806B48664C01409013814204D171
:1039000000F07EFFA0683060F8BDFEF7E9FB0028FC
:1039100007D160480088503081B2012000040818A7
:10392000F0605C49002009684031C871E168C873E3
:103930005D49B80008588047A068002806DAFEF7FD
:10394000CFFB002802D1A07806F076FC012F04D02E
:10395000022F19D0052F17D03FE0A068C0013CD539
:10396000FEF7BEFB002838D1A0684003287E05D4AE
:10397000022832D06079002809D02EE0022806D033
:10398000A079012803D028E02078012825D14848D3
:1039900046490160232141606421684601706A46FE
:1039A0001078401E1070F068C00302D5107800280F
:1039B000F5D110783E4882B2012000041018F06062
:1039C0006846017069460878401E0870F068C003B8
:1039D00002D508780028F5D108782069009029469A
:1039E000A369E268E06904F0DDFF00E033E0294606
:1039F0002369E268E06905F007FB207801282AD1F5
:103A0000E068006A002826D00068002823D000273C
:103A1000C17C0568C9091CD0E268116A814208D1DD
:103A20000B6813620F60E1680A6A002A0ED14F62C8
:103A30000CE00A68824203D0114612688242FBD130
:103A40000D60E268536A834200D151620021FFF7A2
:103A50003BFE2800DCD10E4C2089000401D500F08B
:103A6000CFFEA2681349D00306D50A480224006895
:103A70004018836B23438363900306D505480423D2
:103A800000684018816B194381633260F8BD000003
:103A900080030020C803002058080000C000002058
:103AA000CC0000200080FBFFA803002002230102BD
:103AB000A00300200008000001F094FB012802D1BF
:103AC000FCF750FB05E0044880F3088800BF05F0D0
:103AD000BBFC00BFFEE70000006000207047000054
:103AE0000FB4F0B5584F13203968C001081897B0CB
:103AF000C66A0FA8023000241590703014901BE0A5
:103B0000304606F07BFD0546FC2809D0FE2D18D076
:103B1000002810D0FA2017B0F0BC08BC04B0184739
:103B20006946304606F058FD062215991498FFF7AD
:103B3000D0FC00281BD014362046641CE4B20C28AC
:103B4000DED318A8407C0009E5D00C2C76D972B6DB
:103B500006F008FC62B613203968C0010818C66A6E
:103B6000304606F04BFDFE2868D01436F8E75022A8
:103B700069461CA8FFF7ADFC0028CCD0304606F003
:103B800011FD0AE01436304606F038FD0546FC28E3
:103B900003D0002D01D0FE2DBCD12046641CE4B220
:103BA0000C2801D2FE2DEDD118A8C17C6846C07842
:103BB0008142C6D118A8407CC0060ED46846407821
:103BC000C0060AD502222DA811A9FFF78CFC18A95E
:103BD000487C1021084318A9487418A8407C800626
:103BE00015D468464078800611D523A807A910226D
:103BF00002300231FFF777FC062215991498FFF77F
:103C000072FC18A9487C2021084318A9487418A8F8
:103C1000407C400695D468464078400691D527A858
:103C20000BA9102202300231FFF75DFC18A9487C75
:103C30004021084318A9487483E7FFE701221CA923
:103C4000304606F0E5FC66E7C8030020002811D0E6
:103C5000164A92B201231B041A430923DB06DA60D9
:103C600000BF0922D206D26801231B041A40002A91
:103C7000F7D119E00D4A9178927804239A430B4BBF
:103C80009A701A4692B201231B041A430923DB06D9
:103C9000DA6000BF0922D206D26801231B041A4051
:103CA000002AF7D1014A9170704700001C000020E3
:103CB0007FB5002400940194029403940D786C461F
:103CC0002570497861701178A1705178E1701A46B9
:103CD000694603F0F7FE7FBD1CB507A10968009196
:103CE0000346002105480191006801AA6946903009
:103CF000FFF7DEFF1CBD000001000000C80300202C
:103D000010B50F4CFF220021206801F0C1FE206891
:103D100000218176C1760122427307238373102329
:103D2000C37302760175016102738175C17519460D
:103D30001C30FEF7B9F8002006F05EFF10BD000051
:103D4000CC0300207CB508380E4EC4B230687C210C
:103D5000C06F4C430519288900230105090D012274
:103D6000022001F099FD022069460095087168461D
:103D700006F044FF30687C22C06F00210019FFF775
:103D8000BCFB7CBDCC030020F8B507460D460026E1
:103D9000888800F0BFF8040064D0012F02D0002F03
:103DA00009D062E0E88841285ED833482946006897
:103DB00001F076FE5DE0A868007B06280BD0D521D7
:103DC00007280AD0082819D0092819D00A281CD099
:103DD0000B281ED049E0D22006E0A07ADD2844D18D
:103DE000A07F820702D5D320A0723EE0400701D514
:103DF000A1723AE0204606F0C4FD36E0D420F3E795
:103E0000A07ADD2831D1A07FF0E7A07ADD28F1D0BB
:103E10002BE0207B8107890F012926D188430221CD
:103E20000843207315483921006849014118897BEE
:103E30004227C9060ED50121C902083040181622B2
:103E4000C06C0023394601F06FFC010002D03846F7
:103E500001F056FCA07AF12807D1207B0421084309
:103E6000207302E0012F00D1012631462846FFF7DA
:103E70002BFC0020F8BD0000CC030020C80300206C
:103E8000FFB59C46224B00241B6820490646A03300
:103E900081B02746204609681D7B08E07C23CC6F53
:103EA0004343E4182389002B0DD0401CC0B2854247
:103EB000F4D8854227D0002F25D003202070002A77
:103EC00003D0012002E00127F3E700206070062202
:103ED0006146A01CFFF707FB26811020A072204638
:103EE0006030029901750B994175062216300A99C6
:103EF000FFF7F9FA2046042200210C30FFF7FDFA03
:103F00000020C043606105B0F0BD0000CC0300207C
:103F1000C803002070B500281BD003050F480021FE
:103F200000680D4A1B0DA0301268047B0FE00846A4
:103F30007C267043D56F0830285A0005000D984242
:103F400003D17C225143681870BD491CC9B28C4210
:103F5000EDD8002070BD0000CC030020C803002075
:103F60001CB5FFF7D7FF040016D0208906F0C8FD66
:103F700002460A4B0021012000F042F92089000589
:103F8000000D06F0DFFD02206946009408716846C6
:103F900006F034FEFE20A0721CBD0000307500004B
:103FA000F8B507460E4600251046FFF7B3FF04009C
:103FB00071D0002E0BD120890121090308432081F3
:103FC000E17F02290DD003290BD0042909D02089D3
:103FD0000105090D002E10D07420005DC00723D00C
:103FE0003DE0E17A090702D50121890301E00121C1
:103FF0004903084301052081090DA07ABC2806D099
:10400000AD2806D0AE2806D0F12807D037E0BF2073
:1040100002E0AF2000E0F020A07230E0032F2ED1AC
:1040200000231A46422028E0A07AF12817D126481A
:104030003921006849014118897B422589060ED53E
:104040000121C902083040181722C06C00232946FC
:1040500001F06AFB010002D0284601F051FB00206C
:104060000125A072032F0AD10522062E00D10422B9
:10407000208900230105090D022001F00DFC7420A8
:10408000005DC00708D0207B810700D00125000912
:10409000000120730CE016E0A07BC10608D5EF21DB
:1040A0000840A073010603D54006400EA07301E04E
:1040B000002D08D0208906F023FD0246034B002185
:1040C000012000F09DF8F8BDC80300203075000005
:1040D000F0B585B00E4607461C46154602A804A951
:1040E000FEF7E2FC6946097C02A801910090234694
:1040F0002A4631463846FFF7C3FE05B0F0BDFFB58E
:1041000085B015460E461C46062202A80F9F0E9942
:10411000FFF7E9F902A8FDF7D7FF002806D0012034
:1041200069460874A80706D53B4605E002A804A91D
:10413000FEF7BAFCF6E723466946097C02A801911E
:1041400000902A4631460598FFF79AFE09B0F0BD67
:1041500070B515460E46FFF7DDFE040013D0607BF8
:10416000012108436073A07ABC280CD0E07A0007D4
:1041700009D42046082231462A30FFF7B4F93234F8
:104180002570280A607070BDF8B51B4EC0003168FC
:10419000054680310A68083D515D40234906490EB5
:1041A0005155326819438032126800245155851FD9
:1041B000124F1AE0306880210958C26F20467C23D4
:1041C00058430090801C101849190622FFF781F906
:1041D000002808D13068C16F00980818817AFB293F
:1041E00001D110218172641CE4B23868A030007BD8
:1041F000A042DFD8F8BD0000CC030020C803002097
:104200007FB50024002902D0012902D002E0082550
:1042100000E00025A9186A4611730293012809D00D
:1042200000280AD1104600F0E9FB684600F09AFB2E
:10423000044602E0104600F0E1FB204604B070BDE9
:1042400010B586B0044601A8FFF746FDFDF712FF42
:1042500069468870000A4870FDF70CFF69460870CF
:10426000887840214006400E08436946887005AAB8
:1042700001A806F06BFB032205A92046FFF733F9DE
:1042800003226946E01CFFF72EF906B010BD704707
:104290007047000010B586B004460121092000F0E7
:1042A000B9F900F045F8401E80001D4908580190FA
:1042B00000F03EF8401E80001A49095C6846017211
:1042C00000218172417201A8FDF728FB00F030F84F
:1042D000401E800014490858019000F029F8401E43
:1042E00080001249095C6846017201A8FDF716FBBF
:1042F0000394032168460174417400218174C174E0
:104300004175032101750121817503A800F012FC9C
:10431000002000F069FD012000F0AEFB06B010BDEA
:104320005CC2041060C2041064C2041068C20410AD
:104330000148007870470000EC020020012001498C
:1043400008707047EC0200201CB5044601210846A5
:1043500000F060F92046FDF777FD009006216846E1
:104360000171012181714171FDF7D8FA204600F0F9
:1043700001F81CBD70B504462046FDF765FD0546F5
:104380000021FDF7A9FB70BD70B504462046FDF77E
:104390005BFD0546FDF78AFB70BD10B5044600BF06
:1043A000202000F089FB0128FAD0204600F042FDD1
:1043B00010BD0000F0B5944600220A806346104C00
:1043C0001A60092322681B028646D2184120D26E49
:1043D00000230FE05D01AD182F697646374207D004
:1043E0006F880E88B74203D90F80604605600020B1
:1043F0005B1CDBB22568A0352D7B9D42EAD8F0BD61
:10440000C80300207CB50C4605466A4601A9FFF7A3
:10441000D1FF002801D041207CBD6846E18880881A
:10442000814200D9E08000980088A0802046FDF7F6
:1044300045FA0098012D07D0016908221143022294
:104440009143016100207CBD016949084900F8E7FA
:1044500030B5EFF3108172B60922D2061269FF253A
:10446000821A120214120C4A91351368AC4208DC0D
:104470000122120690431A464032D479DF252C409F
:10448000D471C2010724D20924021B19DA65034A38
:10449000906081F3108830BDC803002040000048C0
:1044A000002004E01549095C491C0918C8B21349E9
:1044B000095C0029F6D1C11C20291EDA02210F4A0D
:1044C000115421220D4B411C5A540822811C5A546C
:1044D0000022C11C5A541946091889B2012212043B
:1044E00011430922D206D16000BF0921C906C9685B
:1044F0000122120411400029F7D17047D003002097
:104500001FB50446064802900846FDF709FB8000E7
:104510000019694611300873684600F023FA1FBD80
:10452000307500001FB504460846FDF7F9FA800013
:104530000019694611300873684600F05FFA1FBD24
:1045400010B5314B197A314B1A890020002905D159
:1045500009231340092B01D120231843002905D139
:1045600011231340112B01D140231843002905D1F9
:1045700021231340212B01D180231843002906D188
:1045800041231340412B02D1FF230133184300295B
:1045900006D181231340812B02D101235B021843F2
:1045A000002909D1FF2302331340FF240234A34220
:1045B00002D101239B021843002907D1144B134059
:1045C000134CA34202D10123DB021843002905D179
:1045D00005231340052B01D110231843002905D1D1
:1045E00093079B0F032B01D108231843022901D104
:1045F00001231843042901D102231843082901D1BA
:104600000423184310BD0000000090400000104833
:104610000104000070B505460C46104828400028EB
:1046200000D003E087210E4802F068F8002C01D08A
:10463000012C00D103E08821094802F05FF8012C29
:1046400005D10848006A28430649086204E0054885
:10465000006AA8430349086270BD00009F3F0F0035
:10466000D8C404100000904010B5FBF79BFD044631
:1046700007F098FB002803D001200007024948609A
:104680002046FBF793FD10BD00ED00E010B50820BB
:10469000294988800321481FFEF7DEFE0321081FF9
:1046A000FEF7DAFE03210020FEF7D6FE03210120EB
:1046B000FEF7D2FE03210420FEF7CEFE03210520E3
:1046C000FEF7CAFE00210620FEF7C6FE03210720E2
:1046D000FEF7C2FE03210D20FEF7BEFE03210E20D1
:1046E000FEF7BAFE03210F20FEF7B6FE03211120CC
:1046F000FEF7B2FE03211220FEF7AEFE03211320C7
:10470000FEF7AAFE03211420FEF7A6FE03211520C2
:10471000FEF7A2FE03211620FEF79EFE03211720BE
:10472000FEF79AFE01210846FCF738FC03480449CD
:10473000086262B610BD00000000104066000E0066
:104740000000904010B50446002C01D0012C00D18F
:1047500003E07721094801F0D1FF002C06D008487A
:104760000069042108430649086105E0044800691E
:10477000042188430249086110BD000074C504107B
:1047800000ED00E010B5030000F01DFD3A332D2DC3
:104790002D1E2130332A2A2A2A2A2A2A2A2A242488
:1047A00024242424242424242424242424242424C9
:1047B00024242424242424242424242424242427B6
:1047C0002727272727272733FCF72CFF10BDFDF7C6
:1047D0002FF810BDFDF794F810BDFDF797FE10BD42
:1047E000FFF7B0FA10BDFFF7CFFC10BDFCF7DAFE03
:1047F00010BD3A38C0B20428FAD2FDF7FCFB10BD58
:104800000348DF2200684030C1791140C171704710
:10481000C803002070B50B481D21006889014418A9
:104820002646646008362460E6600025A66020699C
:10483000290141183046FEF779FC6D1CEDB20B2DB5
:10484000F5D370BDC8030020F0B5002693B0701EEC
:104850000E9042481D210068890144180920C006B5
:104860000069374605022D0A72B6A0692146281A4A
:104870000002000A223106F001FB6169A5614018BF
:104880006061364800684030C1798A0663D42022CE
:104890001143C17162B6256814E0A8686169401AC5
:1048A00000280ADCBA0001A8761C85507F1CF6B2ED
:1048B000FFB2287BFFF766FF03E00E99884200D223
:1048C0000E902D68A542E8D12046083000250C90B6
:1048D0001830129018E0AF0001A8761EC159F6B248
:1048E0002046FEF742FC01A8C1590C98FEF71EFCB9
:1048F00001A8C059007B3A2804D212981299007876
:10490000401E08706D1CEDB2002EE4D12068A0425C
:1049100017D03D256D04284606F0A8FA01460E98EA
:10492000814201D8284601E004F07EFDA169081803
:1049300000020121000A09064018FFF789FD13B0A3
:10494000F0BD72B6002005490722096812028918D5
:10495000C8650349886062B6F1E70000C80300201B
:104960004000004810B504460920C0060069000256
:10497000000A00F06FF8A168FDF702FBA060204676
:1049800000F002F810BD0000F8B51B4D06461D21D1
:10499000286889014418317B481E3E2801D34220F3
:1049A000F8BD2046A2680830824205D03A2905D2D7
:1049B0002021095D072901D36420F8BD6946FEF76F
:1049C000C7FB102231460098FEF78DFD2046009966
:1049D000FEF7ACFB0098007B3A2803D22034207805
:1049E000401C207072B62868DF224030C179114027
:1049F000C17162B60020F8BDC803002070B5144E26
:104A00001D22316892018D182C681DE0017B227BEC
:104A1000914218D121462846FEF7A7FB2846214699
:104A20000830FEF783FB207B3A2803D22035287814
:104A3000401E287072B63068DF224030C1791140C4
:104A4000C17162B670BD2468AC42DFD170BD000098
:104A5000C803002010B507491D22096892018C186F
:104A6000A169401A0002000A06F000FA61690818FC
:104A700010BD0000C803002010B50446002C01D072
:104A8000012C00D103E05F21094801F037FE002C22
:104A900007D00848006B40084000401C05490863E7
:104AA00005E00448006B400840000249086310BD5F
:104AB00028C504100000304010B50446012C15D064
:104AC000082C13D0102C11D0202C0FD0402C0DD03E
:104AD000802C0BD01348844208D0C01F844205D0DC
:104AE000401C844202D0801C844200D104E0FF219B
:104AF00056310D4801F002FEE00FC007002808D033
:104B00000A4840682040002801D0012010BD002044
:104B1000FCE70648008B2040002801D00120F5E783
:104B20000020F3E70800008028C504100000304092
:104B300070470000F8B504462068002804D0A64954
:104B40002068884200D803E09321A44801F0D6FDF4
:104B50002079002808D02079012805D02079022862
:104B600002D02079032800D103E094219B4801F072
:104B7000C5FD6079002808D06079012805D06079EA
:104B8000022802D06079032800D103E095219348E0
:104B900001F0B4FDA079002802D0A079012800D14D
:104BA00003E096218D4801F0A9FDE079002805D0A9
:104BB000E079012802D0E079022800D103E09721B2
:104BC000864801F09BFD207A032800DC03E0982151
:104BD000824801F093FD607A032800DC03E099210C
:104BE0007E4801F08BFDA07A002802D0A07A01282F
:104BF00000D103E09A21794801F080FD7848006BEC
:104C00000007C00F002806D1206801017548FBF796
:104C1000F1FA054605E02068C1007248FBF7EAFAA0
:104C200005466802060C6E4820308680F001281A7E
:104C3000401CC003070C3F2F04DD701C86B2781C9B
:104C40008706BF0E664920310F720846007B60213F
:104C5000884321794901602211400843604920318D
:104C600008735F48007F60218843617949011140E2
:104C700008435B4908775A482030007B0821884365
:104C8000A179C90008221140084355492031087311
:104C90005348007F08218843A179C9001140084387
:104CA0004F490877E07900280ED14D482030007B2D
:104CB000022188434A49203108734948007F022174
:104CC0008843474908773FE0E07902281DD14448EE
:104CD0002030007B02218843801C41492031087329
:104CE0000846007B042188433D49203108733C4835
:104CF000007F02218843801C394908770846007FDD
:104D000004218843364908771EE035482030007B6F
:104D100002218843801C3249203108730846007BF9
:104D200004218843001D2E49203108732C48007F40
:104D300002218843801C2A4908770846007F042105
:104D40008843001D264908772548006B0121490248
:104D50008843217A49020122520211400843204926
:104D600008630846006B89158843217A49100902B7
:104D70005210114008431A4908630846006B91011C
:104D80008843617A890392011140084314490863FA
:104D90000846006B51008843617A4910C9035200EC
:104DA000114008430E4908630D482030007B102154
:104DB0008843A17A09011022114008430849203193
:104DC00008730748007F10218843A17A0901114028
:104DD000084303490877F8BD40420F0028C5041076
:104DE000000030400000127A10B50446002C0BD0B1
:104DF000012C09D0022C07D0032C05D0042C03D0A1
:104E0000052C01D0062C00D104E0FF21DA3107483F
:104E100001F074FC0648007D38218843E100382207
:104E2000114008430249087510BD000028C5041050
:104E30002000304010B504460648844200DC04E0FF
:104E4000FF211231044801F059FCE005C00D03496F
:104E5000088010BDFF01000028C50410000030408C
:104E6000704789084143880A401C70474143080A3B
:104E7000292109014843C00A401C7047FFB585B08D
:104E80000D4605F083FB044600270C20029060E0ED
:104E9000204605F0B3FB0646FE2861D0FC2E04D068
:104EA000002E02D0FA2009B0F0BD204605F08AFBA2
:104EB00084465F49A000401800686A46030A1370E0
:104EC000030C5370000E9070641CA0004018006822
:104ED000D070030A1371000C5071641CA0004018BC
:104EE00000680390FC2E0AD105998C4506D1062254
:104EF00029466846FEF7EDFA002804D0039880089A
:104F00000419641C25E007990398884219D10622E8
:104F1000FF216846FEF7F1FA002635E0641C44489C
:104F2000A10008180168684602F03AFE08980422B9
:104F300080196946FEF7CDFA002824D0B008241A5B
:104F4000641EA41E204605F02DFB0398800804195A
:104F5000E41C384602997F1C884299D38F4210D8AE
:104F6000344801681320C0010818026BC16A406B05
:104F70008918401E091807980C30800800198142D2
:104F800006D25D208FE7361D03988642C6D34DE0DA
:104F900005986946C007C00F001F08702878487040
:104FA00068788870A878C870009900060902090A14
:104FB00001432046FCF7A4FA002831D1E97868467D
:104FC00001702979417069798170FF21C170009861
:104FD000641C0102FF20090A000601432046FCF779
:104FE0008FFA00281CD1641C20460799FCF788FA28
:104FF000002815D1079800258107890F0E18641C19
:1050000012E0089840190746FBF74AF90102F878C0
:10501000090A000601432046FCF772FA002801D075
:10502000FB2040E7641C2D1DB542EAD300203AE77F
:1050300000000410C8030020F8B5062632484025B9
:105040000560324800270780A9050920C006416095
:105050002F4A9160016801602E480321046942696A
:10506000601E08433946401CFEF747FA02F024F957
:10507000C1B22046FCF74CF8FCF786F904F04EFA72
:1050800005F040FE244917208881244C20684219ED
:1050900001465770FA20886228201070FEF7F8FB4E
:1050A000012805D120681022403001781143017099
:1050B00005F0ECFA012805D1206880224030017803
:1050C000114301702068014640300278324302707B
:1050D0000020C0430866FEF71BFAFBF759FDFBF7FB
:1050E00089FD2068012120300177072141770120C7
:1050F000FCF720FFFEF706FBFBF702FE02488038B4
:10510000056002210160F8BD80E100E0C0000020E0
:10511000400000482817002000001048C803002065
:1051200030B5194B047A1B68C268AE331B799D06F3
:10513000AD0F04D10078042801D000200EE001203A
:1051400030BD155C002D0BD0401C80B2155C012DCC
:1051500008D01518203DED7F281880B2A042F0D36A
:10516000087830BD401CDD07012480B2002D02D03C
:10517000105CC00703E09B07F2D5105C8007002895
:10518000EED00C70ECE70000C80300200FB410B59F
:1051900003A9044B044A029800F06CF810BC08BC48
:1051A00004B01847E7730410E40200200A78027084
:1051B0004B7843708A788270CA78C2700B79037119
:1051C0004A794271704730B47446641E2578641C75
:1051D000AB4204D3635D5B00E31830BC18471D4647
:1051E000F8E7000038B5002016490860002409E0FF
:1051F000FFF7A6F9009069460888002800D003E070
:10520000601CC4B2032CF3DB00BF68460088202872
:1052100015DB6846008804F0EFF901200A490870A0
:10522000FAF778FF0AE000BFBFF34F8F074808493D
:10523000C860BFF34F8F00BF00BFFEE7F3E7012058
:1052400038BD0000140000200C0000200400FA0506
:1052500000ED00E002E008C8121F08C1002AFAD1E0
:1052600070477047002001E001C1121F002AFBD1E6
:1052700070470000FFB591B00F460546002606E0D6
:1052800025280AD0149A139990476D1C761C28780B
:105290000028F5D1304615B0F0BD0024009401215E
:1052A000F34A029400E004436D1C2B780846203B2F
:1052B00098401042F7D128782A280ED00222287868
:1052C00001463039092915D800990A235943303944
:1052D000401814436D1C0090F1E701CF00900028A6
:1052E00005DA012040030443009840420090022068
:1052F00004436D1C28782E2815D1042004436878B7
:105300006D1C2A280AD101CF6D1C02900BE0029976
:105310000A225143303940186D1C0290287801460A
:1053200030390929F3D928786C2810D006DC4C28AC
:105330001AD068280ED06A2817D104E0742813D038
:105340007A2812D110E00120400504430CE001212D
:10535000090501E0032109050C436978814203D165
:105360000120000524186D1C6D1C28786E281ED0A5
:105370000CDC632831D004DC00288BD0582811D1F4
:10538000B2E064287BD069280CD178E073282DD056
:1053900004DC6F2870D0702804D1A7E075286CD089
:1053A00078286BD0149A13999047761C62E06002BB
:1053B000400F022807D003280AD0042838680AD0F2
:1053C00006603F1D56E03868F11706604160F8E757
:1053D00038680680F5E70670F3E7387869460874A0
:1053E0000020487404A80390012003E0386803906B
:1053F0000020C0433F1D61070FD5002101E0019946
:10540000491C029A0191914213DA8142F7DB019A19
:105410000399895C0029F2D10BE0002101E0019998
:10542000491C01918142FADB019A0399895C0029A8
:10543000F5D101990098139A401A00902146149BC7
:1054400000F03CF901998019461807E00398039988
:105450000078491C0391149A139990470198401EB3
:105460000190401CF2D12146149B139A009800F041
:1054700015F986196D1C0AE741E033E034E00A2093
:105480000021049005916002410F022905D001CF4F
:10549000C2179446032905D007E0FF1DFF08FF004F
:1054A00003CF06E000B2C2179446042902D140B2ED
:1054B000C1178C4600226146944506DA0A4600214F
:1054C000404291418C462D2102E0210504D52B213B
:1054D0006A461176012103E0E10701D02021F7E7B8
:1054E000019155E00A200BE0102009E01020049003
:1054F00000210420044308200591029003E00820C5
:105500000021059104906002410F022905D001CFCE
:1055100000229446032906D006E0FF1DFF08FF0085
:1055200003CF8C4603E080B2042900D1C0B2002131
:10553000019121072CD529780391702906D0049A6E
:105540001021059B4A401A4305D00EE040216A46CF
:105550001176012108E06146014306D030216A46F8
:1055600011760399517602210191049A0821059B35
:105570004A401A430CD16146014301D1610707D566
:1055800030216A461176012101910299491E02914A
:105590002978582904D037A103910FA90F910DE064
:1055A00039A1F9E76146059B049AFAF783FE039B4C
:1055B0008C469B5C0F9A521E0F92137061460143FA
:1055C000F0D10F9807A9081A20300390600704D57E
:1055D000012000048443029801E001200290039915
:1055E000884201DD401A00E0002041180290019835
:1055F00009180098401A0090E00306D42146149B35
:10560000139A009800F05AF886190020049008E0D8
:1056100006A9085C149A139990470498401C761CBC
:10562000049001998842F3DBE0030CD52146149BDA
:10563000139A009800F042F8861904E0149A30207A
:1056400013999047761C0299481E02900029F5DCB8
:1056500008E00F980F990078491C0F91149A13993C
:105660009047761C0399481E03900029F1DCFAE666
:105670000928010030313233343536373839616228
:1056800063646566000000003031323334353637EC
:10569000383941424344454600000000F8B504460D
:1056A00000251E461746880404D405E0394620200C
:1056B000B0476D1C641EF9D52846F8BDFFB50446F9
:1056C000002581B01E46C80301D5302700E0202701
:1056D000880404D505E038460399B0476D1C641E64
:1056E000F9D5284605B0F0BD704770477047704740
:1056F00070477047704770477047704770470000A9
:105700000A46400608D5D0783A280AD2111D054B22
:1057100080001B5810461847907880088000801C35
:105720008870704714C30410FFB5044600262C4F40
:1057300083B09C460D46080616D572B601AB6A4684
:105740006146204601F014FE00280BD0684681888F
:105750000098827892089200827001806180012610
:1057600062B615E062B621E001AB6A4661462046AA
:1057700001F0FEFD002819D0680609D4684681882A
:1057800000988278920892008270018061800126E0
:105790000098AA00817840238907890F1A40114395
:1057A00081700599C170002E0ED115E00020009087
:1057B00072B6A8060FD401203968C0020818816BA0
:1057C00008221143816362B672B63868F72240300E
:1057D000C1791140C17162B6009807B0F0BD0000F8
:1057E000C80300207047704770B50D46012304467A
:1057F000C1061148006803D51822BF210C4008E0FB
:10580000392149014118897B090701D4002070BD65
:1058100015222107890E08180121C9024018C06C01
:105820002146FFF781FF010004D08D802046FFF75D
:1058300067FFEBE7072070BDC80300207047704783
:105840007047704710B50446C1061148006803D57B
:105850001522BF210C4006E0392149014118897BFE
:10586000C90710D012222107890E08180121C90288
:105870004018C06C00232146FFF756FF010004D0FA
:105880002046FFF73DFF002010BD072010BD00009F
:10589000C803002070477047F8B51D460F46012326
:1058A0000446C10612481646006803D51622BF21D9
:1058B0000C4008E0392149014118897B890701D44E
:1058C0000020F8BD13222107890E08180121C90202
:1058D0004018C06C2146FFF727FF010006D08F80DB
:1058E0008E71CD712046FFF70BFFE9E70720F8BD69
:1058F000C803002070477047F8B5891ECDB2064630
:10590000A81C03210843401C830817481746006859
:10591000F10603D51C22BF210E4008E039214901C0
:105920004118897B090601D40020F8BD19223107EE
:10593000890E08180121C9024018C06C3146FFF7D2
:10594000F3FE04000ED03978217179786171A57168
:105950002A46B91CE01DFDF7C6FD21463046FFF77B
:10596000CFFEE1E70720F8BDC8030020704770476D
:10597000704770477047704770477047704770476F
:10598000704770477047704770477047FFB50546CE
:10599000012381B016460F46C00603D52422BF203E
:1059A000054000E021220F4928070968800E4018B1
:1059B0000121C9024018C06C2946FFF7B5FE04005A
:1059C0000DD0277166713246A01D0499FDF78BFD3D
:1059D00021462846FFF794FE002005B0F0BD0720C1
:1059E000FBE70000C80300207047704770470000C5
:1059F000F7B504230446C10622481546006803D5BE
:105A00002222BF210C4006E0392149014118C97BFF
:105A1000C90732D01F222107890E08180121C902A7
:105A20004018C06C2146FFF77FFE010027D0AA680E
:105A3000081D577BD57B937BBE462D025F19557C95
:105A4000137C2D025E19D57C937CBC462D025D191A
:105A5000577D137D3F02DB19977DD27D1202BA1864
:105A6000019F07807746877067468780C6800581DB
:105A7000438182812046FFF743FE0020FEBD0720C0
:105A8000FEBD0000C80300207047704700687047E3
:105A900000230360436041720272C37283727047D5
:105AA00010B5044600200860206800280CD060680B
:105AB000016008466160FDF7ABFDE17A4018E072D5
:105AC000A07A401CA07210BD2160F2E710B5044618
:105AD0000068884209D102682260002202602068C2
